{
  "abi": [
    {
      "type": "fallback",
      "stateMutability": "nonpayable"
    },
    {
      "type": "function",
      "name": "ENTRY_POINT",
      "inputs": [],
      "outputs": [
        {
          "name": "",
          "type": "address",
          "internalType": "address"
        }
      ],
      "stateMutability": "view"
    },
    {
      "type": "function",
      "name": "idToInflator",
      "inputs": [
        {
          "name": "",
          "type": "uint32",
          "internalType": "uint32"
        }
      ],
      "outputs": [
        {
          "name": "",
          "type": "address",
          "internalType": "contract IInflator"
        }
      ],
      "stateMutability": "view"
    },
    {
      "type": "function",
      "name": "inflate",
      "inputs": [
        {
          "name": "compressed",
          "type": "bytes",
          "internalType": "bytes"
        }
      ],
      "outputs": [
        {
          "name": "ops",
          "type": "tuple[]",
          "internalType": "struct UserOperation[]",
          "components": [
            {
              "name": "sender",
              "type": "address",
              "internalType": "address"
            },
            {
              "name": "nonce",
              "type": "uint256",
              "internalType": "uint256"
            },
            {
              "name": "initCode",
              "type": "bytes",
              "internalType": "bytes"
            },
            {
              "name": "callData",
              "type": "bytes",
              "internalType": "bytes"
            },
            {
              "name": "callGasLimit",
              "type": "uint256",
              "internalType": "uint256"
            },
            {
              "name": "verificationGasLimit",
              "type": "uint256",
              "internalType": "uint256"
            },
            {
              "name": "preVerificationGas",
              "type": "uint256",
              "internalType": "uint256"
            },
            {
              "name": "maxFeePerGas",
              "type": "uint256",
              "internalType": "uint256"
            },
            {
              "name": "maxPriorityFeePerGas",
              "type": "uint256",
              "internalType": "uint256"
            },
            {
              "name": "paymasterAndData",
              "type": "bytes",
              "internalType": "bytes"
            },
            {
              "name": "signature",
              "type": "bytes",
              "internalType": "bytes"
            }
          ]
        },
        {
          "name": "beneficiary",
          "type": "address",
          "internalType": "address payable"
        }
      ],
      "stateMutability": "view"
    },
    {
      "type": "function",
      "name": "inflatorToID",
      "inputs": [
        {
          "name": "",
          "type": "address",
          "internalType": "contract IInflator"
        }
      ],
      "outputs": [
        {
          "name": "",
          "type": "uint32",
          "internalType": "uint32"
        }
      ],
      "stateMutability": "view"
    },
    {
      "type": "function",
      "name": "registerInflator",
      "inputs": [
        {
          "name": "inflatorId",
          "type": "uint32",
          "internalType": "uint32"
        },
        {
          "name": "inflator",
          "type": "address",
          "internalType": "contract IInflator"
        }
      ],
      "outputs": [],
      "stateMutability": "nonpayable"
    }
  ],
  "bytecode": {
    "object": "0x608060405234801561001057600080fd5b50610b34806100206000396000f3fe608060405234801561001057600080fd5b50600436106100575760003560e01c806303a353bd146100d35780633e652e30146100fd57806345c706581461011057806394430fa514610151578063e5f7e72f1461016c575b6000806100656000366101a7565b6040516307eb652360e21b81529193509150735ff137d4b0fdcd49dca30c7cf57e578a026d278990631fad948c906100a3908590859060040161057c565b600060405180830381600087803b1580156100bd57600080fd5b505af11580156100d1573d6000803e3d6000fd5b005b6100e66100e13660046106a6565b6101a7565b6040516100f492919061057c565b60405180910390f35b6100d161010b366004610749565b6102bd565b61013961011e366004610780565b6000602081905290815260409020546001600160a01b031681565b6040516001600160a01b0390911681526020016100f4565b610139735ff137d4b0fdcd49dca30c7cf57e578a026d278981565b61019261017a3660046107a2565b60016020526000908152604090205463ffffffff1681565b60405163ffffffff90911681526020016100f4565b60606000806101b960048286886107bf565b6101c2916107e9565b60e01c6000818152602081905260409020549091506001600160a01b0316806102325760405162461bcd60e51b815260206004820152601760248201527f496e666c61746f72206e6f74207265676973746572656400000000000000000060448201526064015b60405180910390fd5b6001600160a01b0381166303a353bd61024e876004818b6107bf565b6040518363ffffffff1660e01b815260040161026b929190610819565b600060405180830381865afa158015610288573d6000803e3d6000fd5b505050506040513d6000823e601f3d908101601f191682016040526102b09190810190610930565b9350935050509250929050565b8163ffffffff166000036103135760405162461bcd60e51b815260206004820152601760248201527f496e666c61746f722049442063616e6e6f7420626520300000000000000000006044820152606401610229565b60e082901b6001600160e01b0319166303e652e360e41b1480159061034d575060e082901b6001600160e01b0319166303a353bd60e01b14155b6103af5760405162461bcd60e51b815260206004820152602d60248201527f496e666c61746f722049442063616e6e6f7420636c6173682077697468206f7460448201526c6865722066756e6374696f6e7360981b6064820152608401610229565b6001600160a01b0381166104055760405162461bcd60e51b815260206004820152601c60248201527f496e666c61746f7220616464726573732063616e6e6f742062652030000000006044820152606401610229565b63ffffffff82166000908152602081905260409020546001600160a01b0316156104715760405162461bcd60e51b815260206004820152601b60248201527f496e666c61746f7220616c7265616479207265676973746572656400000000006044820152606401610229565b6001600160a01b03811660009081526001602052604090205463ffffffff16156104dd5760405162461bcd60e51b815260206004820152601b60248201527f496e666c61746f7220616c7265616479207265676973746572656400000000006044820152606401610229565b63ffffffff90911660008181526020818152604080832080546001600160a01b039096166001600160a01b0319909616861790559382526001905291909120805463ffffffff19169091179055565b60005b8381101561054757818101518382015260200161052f565b50506000910152565b6000815180845261056881602086016020860161052c565b601f01601f19169290920160200192915050565b60006040808301818452808651808352606092508286019150828160051b8701016020808a0160005b8481101561068057898403605f19018652815180516001600160a01b03168552610160848201518587015289820151818b8801526105e582880182610550565b915050888201518682038a8801526105fd8282610550565b6080848101519089015260a0808501519089015260c0808501519089015260e08085015190890152610100808501519089015261012080850151898303828b0152919350915061064d8382610550565b92505050610140808301519250868203818801525061066c8183610550565b9785019795505050908201906001016105a5565b50508196506106998189018a6001600160a01b03169052565b5050505050509392505050565b600080602083850312156106b957600080fd5b823567ffffffffffffffff808211156106d157600080fd5b818501915085601f8301126106e557600080fd5b8135818111156106f457600080fd5b86602082850101111561070657600080fd5b60209290920196919550909350505050565b803563ffffffff8116811461072c57600080fd5b919050565b6001600160a01b038116811461074657600080fd5b50565b6000806040838503121561075c57600080fd5b61076583610718565b9150602083013561077581610731565b809150509250929050565b60006020828403121561079257600080fd5b61079b82610718565b9392505050565b6000602082840312156107b457600080fd5b813561079b81610731565b600080858511156107cf57600080fd5b838611156107dc57600080fd5b5050820193919092039150565b6001600160e01b031981358181169160048510156108115780818660040360031b1b83161692505b505092915050565b60208152816020820152818360408301376000818301604090810191909152601f909201601f19160101919050565b634e487b7160e01b600052604160045260246000fd5b604051610160810167ffffffffffffffff8111828210171561088257610882610848565b60405290565b604051601f8201601f1916810167ffffffffffffffff811182821017156108b1576108b1610848565b604052919050565b805161072c81610731565b600082601f8301126108d557600080fd5b815167ffffffffffffffff8111156108ef576108ef610848565b610902601f8201601f1916602001610888565b81815284602083860101111561091757600080fd5b61092882602083016020870161052c565b949350505050565b6000806040838503121561094357600080fd5b825167ffffffffffffffff8082111561095b57600080fd5b818501915085601f83011261096f57600080fd5b815160208282111561098357610983610848565b8160051b610992828201610888565b928352848101820192828101908a8511156109ac57600080fd5b83870192505b84831015610ae1578251868111156109c957600080fd5b8701610160818d03601f190112156109e057600080fd5b6109e861085e565b6109f38683016108b9565b8152604082015186820152606082015188811115610a1057600080fd5b610a1e8e88838601016108c4565b604083015250608082015188811115610a3657600080fd5b610a448e88838601016108c4565b60608301525060a0820151608082015260c082015160a082015260e082015160c082015261010082015160e08201526101208201516101008201526101408083015189811115610a9357600080fd5b610aa18f89838701016108c4565b6101208401525061016083015189811115610abb57600080fd5b610ac98f89838701016108c4565b918301919091525083525091830191908301906109b2565b9750610af19150508782016108b9565b945050505050925092905056fea26469706673582212209dc3b9cdfecb49d62bbfa33f059dbc251c981f4fb2be37e7fafa50da838a5e1c64736f6c63430008150033",
    "linkReferences": {}
  },
  "methodIdentifiers": {
    "ENTRY_POINT()": "94430fa5",
    "idToInflator(uint32)": "45c70658",
    "inflate(bytes)": "03a353bd",
    "inflatorToID(address)": "e5f7e72f",
    "registerInflator(uint32,address)": "3e652e30"
  },
  "id": 32
}