{
  "abi": [
    {
      "type": "constructor",
      "inputs": [
        {
          "name": "anEntryPoint",
          "type": "address",
          "internalType": "contract IEntryPoint"
        }
      ],
      "stateMutability": "nonpayable"
    },
    {
      "type": "receive",
      "stateMutability": "payable"
    },
    {
      "type": "function",
      "name": "addDeposit",
      "inputs": [],
      "outputs": [],
      "stateMutability": "payable"
    },
    {
      "type": "function",
      "name": "entryPoint",
      "inputs": [],
      "outputs": [
        {
          "name": "",
          "type": "address",
          "internalType": "contract IEntryPoint"
        }
      ],
      "stateMutability": "view"
    },
    {
      "type": "function",
      "name": "execute",
      "inputs": [
        {
          "name": "dest",
          "type": "address",
          "internalType": "address"
        },
        {
          "name": "value",
          "type": "uint256",
          "internalType": "uint256"
        },
        {
          "name": "func",
          "type": "bytes",
          "internalType": "bytes"
        }
      ],
      "outputs": [],
      "stateMutability": "nonpayable"
    },
    {
      "type": "function",
      "name": "executeBatch",
      "inputs": [
        {
          "name": "dest",
          "type": "address[]",
          "internalType": "address[]"
        },
        {
          "name": "func",
          "type": "bytes[]",
          "internalType": "bytes[]"
        }
      ],
      "outputs": [],
      "stateMutability": "nonpayable"
    },
    {
      "type": "function",
      "name": "getDeposit",
      "inputs": [],
      "outputs": [
        {
          "name": "",
          "type": "uint256",
          "internalType": "uint256"
        }
      ],
      "stateMutability": "view"
    },
    {
      "type": "function",
      "name": "getNonce",
      "inputs": [],
      "outputs": [
        {
          "name": "",
          "type": "uint256",
          "internalType": "uint256"
        }
      ],
      "stateMutability": "view"
    },
    {
      "type": "function",
      "name": "initialize",
      "inputs": [
        {
          "name": "anOwner",
          "type": "address",
          "internalType": "address"
        }
      ],
      "outputs": [],
      "stateMutability": "nonpayable"
    },
    {
      "type": "function",
      "name": "onERC1155BatchReceived",
      "inputs": [
        {
          "name": "",
          "type": "address",
          "internalType": "address"
        },
        {
          "name": "",
          "type": "address",
          "internalType": "address"
        },
        {
          "name": "",
          "type": "uint256[]",
          "internalType": "uint256[]"
        },
        {
          "name": "",
          "type": "uint256[]",
          "internalType": "uint256[]"
        },
        {
          "name": "",
          "type": "bytes",
          "internalType": "bytes"
        }
      ],
      "outputs": [
        {
          "name": "",
          "type": "bytes4",
          "internalType": "bytes4"
        }
      ],
      "stateMutability": "pure"
    },
    {
      "type": "function",
      "name": "onERC1155Received",
      "inputs": [
        {
          "name": "",
          "type": "address",
          "internalType": "address"
        },
        {
          "name": "",
          "type": "address",
          "internalType": "address"
        },
        {
          "name": "",
          "type": "uint256",
          "internalType": "uint256"
        },
        {
          "name": "",
          "type": "uint256",
          "internalType": "uint256"
        },
        {
          "name": "",
          "type": "bytes",
          "internalType": "bytes"
        }
      ],
      "outputs": [
        {
          "name": "",
          "type": "bytes4",
          "internalType": "bytes4"
        }
      ],
      "stateMutability": "pure"
    },
    {
      "type": "function",
      "name": "onERC721Received",
      "inputs": [
        {
          "name": "",
          "type": "address",
          "internalType": "address"
        },
        {
          "name": "",
          "type": "address",
          "internalType": "address"
        },
        {
          "name": "",
          "type": "uint256",
          "internalType": "uint256"
        },
        {
          "name": "",
          "type": "bytes",
          "internalType": "bytes"
        }
      ],
      "outputs": [
        {
          "name": "",
          "type": "bytes4",
          "internalType": "bytes4"
        }
      ],
      "stateMutability": "pure"
    },
    {
      "type": "function",
      "name": "owner",
      "inputs": [],
      "outputs": [
        {
          "name": "",
          "type": "address",
          "internalType": "address"
        }
      ],
      "stateMutability": "view"
    },
    {
      "type": "function",
      "name": "proxiableUUID",
      "inputs": [],
      "outputs": [
        {
          "name": "",
          "type": "bytes32",
          "internalType": "bytes32"
        }
      ],
      "stateMutability": "view"
    },
    {
      "type": "function",
      "name": "supportsInterface",
      "inputs": [
        {
          "name": "interfaceId",
          "type": "bytes4",
          "internalType": "bytes4"
        }
      ],
      "outputs": [
        {
          "name": "",
          "type": "bool",
          "internalType": "bool"
        }
      ],
      "stateMutability": "view"
    },
    {
      "type": "function",
      "name": "tokensReceived",
      "inputs": [
        {
          "name": "",
          "type": "address",
          "internalType": "address"
        },
        {
          "name": "",
          "type": "address",
          "internalType": "address"
        },
        {
          "name": "",
          "type": "address",
          "internalType": "address"
        },
        {
          "name": "",
          "type": "uint256",
          "internalType": "uint256"
        },
        {
          "name": "",
          "type": "bytes",
          "internalType": "bytes"
        },
        {
          "name": "",
          "type": "bytes",
          "internalType": "bytes"
        }
      ],
      "outputs": [],
      "stateMutability": "pure"
    },
    {
      "type": "function",
      "name": "upgradeTo",
      "inputs": [
        {
          "name": "newImplementation",
          "type": "address",
          "internalType": "address"
        }
      ],
      "outputs": [],
      "stateMutability": "nonpayable"
    },
    {
      "type": "function",
      "name": "upgradeToAndCall",
      "inputs": [
        {
          "name": "newImplementation",
          "type": "address",
          "internalType": "address"
        },
        {
          "name": "data",
          "type": "bytes",
          "internalType": "bytes"
        }
      ],
      "outputs": [],
      "stateMutability": "payable"
    },
    {
      "type": "function",
      "name": "validateUserOp",
      "inputs": [
        {
          "name": "userOp",
          "type": "tuple",
          "internalType": "struct UserOperation",
          "components": [
            {
              "name": "sender",
              "type": "address",
              "internalType": "address"
            },
            {
              "name": "nonce",
              "type": "uint256",
              "internalType": "uint256"
            },
            {
              "name": "initCode",
              "type": "bytes",
              "internalType": "bytes"
            },
            {
              "name": "callData",
              "type": "bytes",
              "internalType": "bytes"
            },
            {
              "name": "callGasLimit",
              "type": "uint256",
              "internalType": "uint256"
            },
            {
              "name": "verificationGasLimit",
              "type": "uint256",
              "internalType": "uint256"
            },
            {
              "name": "preVerificationGas",
              "type": "uint256",
              "internalType": "uint256"
            },
            {
              "name": "maxFeePerGas",
              "type": "uint256",
              "internalType": "uint256"
            },
            {
              "name": "maxPriorityFeePerGas",
              "type": "uint256",
              "internalType": "uint256"
            },
            {
              "name": "paymasterAndData",
              "type": "bytes",
              "internalType": "bytes"
            },
            {
              "name": "signature",
              "type": "bytes",
              "internalType": "bytes"
            }
          ]
        },
        {
          "name": "userOpHash",
          "type": "bytes32",
          "internalType": "bytes32"
        },
        {
          "name": "missingAccountFunds",
          "type": "uint256",
          "internalType": "uint256"
        }
      ],
      "outputs": [
        {
          "name": "validationData",
          "type": "uint256",
          "internalType": "uint256"
        }
      ],
      "stateMutability": "nonpayable"
    },
    {
      "type": "function",
      "name": "withdrawDepositTo",
      "inputs": [
        {
          "name": "withdrawAddress",
          "type": "address",
          "internalType": "address payable"
        },
        {
          "name": "amount",
          "type": "uint256",
          "internalType": "uint256"
        }
      ],
      "outputs": [],
      "stateMutability": "nonpayable"
    },
    {
      "type": "event",
      "name": "AdminChanged",
      "inputs": [
        {
          "name": "previousAdmin",
          "type": "address",
          "indexed": false,
          "internalType": "address"
        },
        {
          "name": "newAdmin",
          "type": "address",
          "indexed": false,
          "internalType": "address"
        }
      ],
      "anonymous": false
    },
    {
      "type": "event",
      "name": "BeaconUpgraded",
      "inputs": [
        {
          "name": "beacon",
          "type": "address",
          "indexed": true,
          "internalType": "address"
        }
      ],
      "anonymous": false
    },
    {
      "type": "event",
      "name": "Initialized",
      "inputs": [
        {
          "name": "version",
          "type": "uint8",
          "indexed": false,
          "internalType": "uint8"
        }
      ],
      "anonymous": false
    },
    {
      "type": "event",
      "name": "SimpleAccountInitialized",
      "inputs": [
        {
          "name": "entryPoint",
          "type": "address",
          "indexed": true,
          "internalType": "contract IEntryPoint"
        },
        {
          "name": "owner",
          "type": "address",
          "indexed": true,
          "internalType": "address"
        }
      ],
      "anonymous": false
    },
    {
      "type": "event",
      "name": "Upgraded",
      "inputs": [
        {
          "name": "implementation",
          "type": "address",
          "indexed": true,
          "internalType": "address"
        }
      ],
      "anonymous": false
    }
  ],
  "bytecode": {
    "object": "0x60c0604052306080523480156200001557600080fd5b5060405162001db738038062001db7833981016040819052620000389162000118565b6001600160a01b03811660a0526200004f62000056565b506200014a565b600054610100900460ff1615620000c35760405162461bcd60e51b815260206004820152602760248201527f496e697469616c697a61626c653a20636f6e747261637420697320696e697469604482015266616c697a696e6760c81b606482015260840160405180910390fd5b60005460ff908116101562000116576000805460ff191660ff9081179091556040519081527f7f26b83ff96e1f2b6a682f133852f6798a09c465da95921460cefb38474024989060200160405180910390a15b565b6000602082840312156200012b57600080fd5b81516001600160a01b03811681146200014357600080fd5b9392505050565b60805160a051611bfa620001bd600039600081816102c401528181610607015281816106880152818161090101528181610aab01528181610ae501528181610d620152610f7f01526000818161050a0152818161054a015281816107190152818161075901526107ec0152611bfa6000f3fe60806040526004361061010c5760003560e01c806352d1902d11610095578063bc197c8111610064578063bc197c8114610308578063c399ec8814610337578063c4d66de81461034c578063d087d2881461036c578063f23a6e611461038157600080fd5b806352d1902d146102625780638da5cb5b14610277578063b0d691fe146102b5578063b61d27f6146102e857600080fd5b80633659cfe6116100dc5780633659cfe6146101d95780633a871cdd146101f95780634a58db19146102275780634d44560d1461022f5780634f1ef2861461024f57600080fd5b806223de291461011857806301ffc9a71461013f578063150b7a021461017457806318dfb3c7146101b957600080fd5b3661011357005b600080fd5b34801561012457600080fd5b5061013d6101333660046114df565b5050505050505050565b005b34801561014b57600080fd5b5061015f61015a366004611590565b6103ae565b60405190151581526020015b60405180910390f35b34801561018057600080fd5b506101a061018f3660046115ba565b630a85bd0160e11b95945050505050565b6040516001600160e01b0319909116815260200161016b565b3480156101c557600080fd5b5061013d6101d4366004611672565b610400565b3480156101e557600080fd5b5061013d6101f43660046116de565b610500565b34801561020557600080fd5b506102196102143660046116fb565b6105df565b60405190815260200161016b565b61013d610605565b34801561023b57600080fd5b5061013d61024a36600461174f565b61067e565b61013d61025d366004611791565b61070f565b34801561026e57600080fd5b506102196107df565b34801561028357600080fd5b5060005461029d906201000090046001600160a01b031681565b6040516001600160a01b03909116815260200161016b565b3480156102c157600080fd5b507f000000000000000000000000000000000000000000000000000000000000000061029d565b3480156102f457600080fd5b5061013d610303366004611855565b610892565b34801561031457600080fd5b506101a06103233660046118a5565b63bc197c8160e01b98975050505050505050565b34801561034357600080fd5b506102196108e1565b34801561035857600080fd5b5061013d6103673660046116de565b610972565b34801561037857600080fd5b50610219610a84565b34801561038d57600080fd5b506101a061039c366004611943565b63f23a6e6160e01b9695505050505050565b60006001600160e01b03198216630a85bd0160e11b14806103df57506001600160e01b03198216630271189760e51b145b806103fa57506001600160e01b031982166301ffc9a760e01b145b92915050565b610408610ada565b8281146104525760405162461bcd60e51b815260206004820152601360248201527277726f6e67206172726179206c656e6774687360681b60448201526064015b60405180910390fd5b60005b838110156104f9576104e7858583818110610472576104726119bf565b905060200201602081019061048791906116de565b600085858581811061049b5761049b6119bf565b90506020028101906104ad91906119d5565b8080601f016020809104026020016040519081016040528093929190818152602001838380828437600092019190915250610b6f92505050565b806104f181611a1c565b915050610455565b5050505050565b6001600160a01b037f00000000000000000000000000000000000000000000000000000000000000001630036105485760405162461bcd60e51b815260040161044990611a43565b7f00000000000000000000000000000000000000000000000000000000000000006001600160a01b0316610591600080516020611b7e833981519152546001600160a01b031690565b6001600160a01b0316146105b75760405162461bcd60e51b815260040161044990611a8f565b6105c081610bdf565b604080516000808252602082019092526105dc91839190610be7565b50565b60006105e9610d57565b6105f38484610dcf565b90506105fe82610ea8565b9392505050565b7f000000000000000000000000000000000000000000000000000000000000000060405163b760faf960e01b81523060048201526001600160a01b03919091169063b760faf99034906024016000604051808303818588803b15801561066a57600080fd5b505af11580156104f9573d6000803e3d6000fd5b610686610ef5565b7f000000000000000000000000000000000000000000000000000000000000000060405163040b850f60e31b81526001600160a01b03848116600483015260248201849052919091169063205c287890604401600060405180830381600087803b1580156106f357600080fd5b505af1158015610707573d6000803e3d6000fd5b505050505050565b6001600160a01b037f00000000000000000000000000000000000000000000000000000000000000001630036107575760405162461bcd60e51b815260040161044990611a43565b7f00000000000000000000000000000000000000000000000000000000000000006001600160a01b03166107a0600080516020611b7e833981519152546001600160a01b031690565b6001600160a01b0316146107c65760405162461bcd60e51b815260040161044990611a8f565b6107cf82610bdf565b6107db82826001610be7565b5050565b6000306001600160a01b037f0000000000000000000000000000000000000000000000000000000000000000161461087f5760405162461bcd60e51b815260206004820152603860248201527f555550535570677261646561626c653a206d757374206e6f742062652063616c60448201527f6c6564207468726f7567682064656c656761746563616c6c00000000000000006064820152608401610449565b50600080516020611b7e83398151915290565b61089a610ada565b6108db848484848080601f016020809104026020016040519081016040528093929190818152602001838380828437600092019190915250610b6f92505050565b50505050565b6040516370a0823160e01b81523060048201526000906001600160a01b037f000000000000000000000000000000000000000000000000000000000000000016906370a08231906024015b602060405180830381865afa158015610949573d6000803e3d6000fd5b505050506040513d601f19601f8201168201806040525081019061096d9190611adb565b905090565b600054610100900460ff16158080156109925750600054600160ff909116105b806109ac5750303b1580156109ac575060005460ff166001145b610a0f5760405162461bcd60e51b815260206004820152602e60248201527f496e697469616c697a61626c653a20636f6e747261637420697320616c72656160448201526d191e481a5b9a5d1a585b1a5e995960921b6064820152608401610449565b6000805460ff191660011790558015610a32576000805461ff0019166101001790555b610a3b82610f4c565b80156107db576000805461ff0019169055604051600181527f7f26b83ff96e1f2b6a682f133852f6798a09c465da95921460cefb38474024989060200160405180910390a15050565b604051631aab3f0d60e11b8152306004820152600060248201819052906001600160a01b037f000000000000000000000000000000000000000000000000000000000000000016906335567e1a9060440161092c565b336001600160a01b037f0000000000000000000000000000000000000000000000000000000000000000161480610b2157506000546201000090046001600160a01b031633145b610b6d5760405162461bcd60e51b815260206004820181905260248201527f6163636f756e743a206e6f74204f776e6572206f7220456e747279506f696e746044820152606401610449565b565b600080846001600160a01b03168484604051610b8b9190611b18565b60006040518083038185875af1925050503d8060008114610bc8576040519150601f19603f3d011682016040523d82523d6000602084013e610bcd565b606091505b5091509150816104f957805160208201fd5b6105dc610ef5565b7f4910fdfa16fed3260ed0e7147f7cc6da11a60208b5b9406d12a635614ffd91435460ff1615610c1f57610c1a83610fc8565b505050565b826001600160a01b03166352d1902d6040518163ffffffff1660e01b8152600401602060405180830381865afa925050508015610c79575060408051601f3d908101601f19168201909252610c7691810190611adb565b60015b610cdc5760405162461bcd60e51b815260206004820152602e60248201527f45524331393637557067726164653a206e657720696d706c656d656e7461746960448201526d6f6e206973206e6f74205555505360901b6064820152608401610449565b600080516020611b7e8339815191528114610d4b5760405162461bcd60e51b815260206004820152602960248201527f45524331393637557067726164653a20756e737570706f727465642070726f786044820152681a58589b195555525160ba1b6064820152608401610449565b50610c1a838383611064565b336001600160a01b037f00000000000000000000000000000000000000000000000000000000000000001614610b6d5760405162461bcd60e51b815260206004820152601c60248201527f6163636f756e743a206e6f742066726f6d20456e747279506f696e74000000006044820152606401610449565b600080610e29836040517f19457468657265756d205369676e6564204d6573736167653a0a3332000000006020820152603c8101829052600090605c01604051602081830303815290604052805190602001209050919050565b9050610e79610e3c6101408601866119d5565b8080601f01602080910402602001604051908101604052809392919081815260200183838082843760009201919091525085939250506110899050565b6000546201000090046001600160a01b03908116911614610e9e5760019150506103fa565b5060009392505050565b80156105dc57604051600090339060001990849084818181858888f193505050503d80600081146104f9576040519150601f19603f3d011682016040523d82523d6000602084013e6104f9565b6000546201000090046001600160a01b0316331480610f1357503330145b610b6d5760405162461bcd60e51b815260206004820152600a60248201526937b7363c9037bbb732b960b11b6044820152606401610449565b6000805462010000600160b01b031916620100006001600160a01b038481168202929092178084556040519190048216927f0000000000000000000000000000000000000000000000000000000000000000909216917f47e55c76e7a6f1fd8996a1da8008c1ea29699cca35e7bcd057f2dec313b6e5de91a350565b6001600160a01b0381163b6110355760405162461bcd60e51b815260206004820152602d60248201527f455243313936373a206e657720696d706c656d656e746174696f6e206973206e60448201526c1bdd08184818dbdb9d1c9858dd609a1b6064820152608401610449565b600080516020611b7e83398151915280546001600160a01b0319166001600160a01b0392909216919091179055565b61106d836110ad565b60008251118061107a5750805b15610c1a576108db83836110ed565b60008060006110988585611112565b915091506110a581611157565b509392505050565b6110b681610fc8565b6040516001600160a01b038216907fbc7cd75a20ee27fd9adebab32041f755214dbc6bffa90cc0225b39da2e5c2d3b90600090a250565b60606105fe8383604051806060016040528060278152602001611b9e602791396112a1565b60008082516041036111485760208301516040840151606085015160001a61113c87828585611319565b94509450505050611150565b506000905060025b9250929050565b600081600481111561116b5761116b611b34565b036111735750565b600181600481111561118757611187611b34565b036111d45760405162461bcd60e51b815260206004820152601860248201527f45434453413a20696e76616c6964207369676e617475726500000000000000006044820152606401610449565b60028160048111156111e8576111e8611b34565b036112355760405162461bcd60e51b815260206004820152601f60248201527f45434453413a20696e76616c6964207369676e6174757265206c656e677468006044820152606401610449565b600381600481111561124957611249611b34565b036105dc5760405162461bcd60e51b815260206004820152602260248201527f45434453413a20696e76616c6964207369676e6174757265202773272076616c604482015261756560f01b6064820152608401610449565b6060600080856001600160a01b0316856040516112be9190611b18565b600060405180830381855af49150503d80600081146112f9576040519150601f19603f3d011682016040523d82523d6000602084013e6112fe565b606091505b509150915061130f868383876113dd565b9695505050505050565b6000807f7fffffffffffffffffffffffffffffff5d576e7357a4501ddfe92f46681b20a083111561135057506000905060036113d4565b6040805160008082526020820180845289905260ff881692820192909252606081018690526080810185905260019060a0016020604051602081039080840390855afa1580156113a4573d6000803e3d6000fd5b5050604051601f1901519150506001600160a01b0381166113cd576000600192509250506113d4565b9150600090505b94509492505050565b6060831561144c578251600003611445576001600160a01b0385163b6114455760405162461bcd60e51b815260206004820152601d60248201527f416464726573733a2063616c6c20746f206e6f6e2d636f6e74726163740000006044820152606401610449565b5081611456565b611456838361145e565b949350505050565b81511561146e5781518083602001fd5b8060405162461bcd60e51b81526004016104499190611b4a565b6001600160a01b03811681146105dc57600080fd5b60008083601f8401126114af57600080fd5b50813567ffffffffffffffff8111156114c757600080fd5b60208301915083602082850101111561115057600080fd5b60008060008060008060008060c0898b0312156114fb57600080fd5b883561150681611488565b9750602089013561151681611488565b9650604089013561152681611488565b955060608901359450608089013567ffffffffffffffff8082111561154a57600080fd5b6115568c838d0161149d565b909650945060a08b013591508082111561156f57600080fd5b5061157c8b828c0161149d565b999c989b5096995094979396929594505050565b6000602082840312156115a257600080fd5b81356001600160e01b0319811681146105fe57600080fd5b6000806000806000608086880312156115d257600080fd5b85356115dd81611488565b945060208601356115ed81611488565b935060408601359250606086013567ffffffffffffffff81111561161057600080fd5b61161c8882890161149d565b969995985093965092949392505050565b60008083601f84011261163f57600080fd5b50813567ffffffffffffffff81111561165757600080fd5b6020830191508360208260051b850101111561115057600080fd5b6000806000806040858703121561168857600080fd5b843567ffffffffffffffff808211156116a057600080fd5b6116ac8883890161162d565b909650945060208701359150808211156116c557600080fd5b506116d28782880161162d565b95989497509550505050565b6000602082840312156116f057600080fd5b81356105fe81611488565b60008060006060848603121561171057600080fd5b833567ffffffffffffffff81111561172757600080fd5b8401610160818703121561173a57600080fd5b95602085013595506040909401359392505050565b6000806040838503121561176257600080fd5b823561176d81611488565b946020939093013593505050565b634e487b7160e01b600052604160045260246000fd5b600080604083850312156117a457600080fd5b82356117af81611488565b9150602083013567ffffffffffffffff808211156117cc57600080fd5b818501915085601f8301126117e057600080fd5b8135818111156117f2576117f261177b565b604051601f8201601f19908116603f0116810190838211818310171561181a5761181a61177b565b8160405282815288602084870101111561183357600080fd5b8260208601602083013760006020848301015280955050505050509250929050565b6000806000806060858703121561186b57600080fd5b843561187681611488565b935060208501359250604085013567ffffffffffffffff81111561189957600080fd5b6116d28782880161149d565b60008060008060008060008060a0898b0312156118c157600080fd5b88356118cc81611488565b975060208901356118dc81611488565b9650604089013567ffffffffffffffff808211156118f957600080fd5b6119058c838d0161162d565b909850965060608b013591508082111561191e57600080fd5b61192a8c838d0161162d565b909650945060808b013591508082111561156f57600080fd5b60008060008060008060a0878903121561195c57600080fd5b863561196781611488565b9550602087013561197781611488565b94506040870135935060608701359250608087013567ffffffffffffffff8111156119a157600080fd5b6119ad89828a0161149d565b979a9699509497509295939492505050565b634e487b7160e01b600052603260045260246000fd5b6000808335601e198436030181126119ec57600080fd5b83018035915067ffffffffffffffff821115611a0757600080fd5b60200191503681900382131561115057600080fd5b600060018201611a3c57634e487b7160e01b600052601160045260246000fd5b5060010190565b6020808252602c908201527f46756e6374696f6e206d7573742062652063616c6c6564207468726f7567682060408201526b19195b1959d85d1958d85b1b60a21b606082015260800190565b6020808252602c908201527f46756e6374696f6e206d7573742062652063616c6c6564207468726f7567682060408201526b6163746976652070726f787960a01b606082015260800190565b600060208284031215611aed57600080fd5b5051919050565b60005b83811015611b0f578181015183820152602001611af7565b50506000910152565b60008251611b2a818460208701611af4565b9190910192915050565b634e487b7160e01b600052602160045260246000fd5b6020815260008251806020840152611b69816040850160208701611af4565b601f01601f1916919091016040019291505056fe360894a13ba1a3210667c828492db98dca3e2076cc3735a920a3ca505d382bbc416464726573733a206c6f772d6c6576656c2064656c65676174652063616c6c206661696c6564a264697066735822122056b1f3a880f4482051299e99211dbab0207ca1fd22eb957acee4729b44c1492f64736f6c63430008150033",
    "linkReferences": {}
  },
  "deployedBytecode": {
    "object": "0x60806040523661001357610011610017565b005b6100115b610027610022610074565b6100b9565b565b606061004e83836040518060600160405280602781526020016102f1602791396100dd565b9392505050565b73ffffffffffffffffffffffffffffffffffffffff163b151590565b90565b60006100b47f360894a13ba1a3210667c828492db98dca3e2076cc3735a920a3ca505d382bbc5473ffffffffffffffffffffffffffffffffffffffff1690565b905090565b3660008037600080366000845af43d6000803e8080156100d8573d6000f35b3d6000fd5b60606000808573ffffffffffffffffffffffffffffffffffffffff16856040516101079190610283565b600060405180830381855af49150503d8060008114610142576040519150601f19603f3d011682016040523d82523d6000602084013e610147565b606091505b509150915061015886838387610162565b9695505050505050565b606083156101fd5782516000036101f65773ffffffffffffffffffffffffffffffffffffffff85163b6101f6576040517f08c379a000000000000000000000000000000000000000000000000000000000815260206004820152601d60248201527f416464726573733a2063616c6c20746f206e6f6e2d636f6e747261637400000060448201526064015b60405180910390fd5b5081610207565b610207838361020f565b949350505050565b81511561021f5781518083602001fd5b806040517f08c379a00000000000000000000000000000000000000000000000000000000081526004016101ed919061029f565b60005b8381101561026e578181015183820152602001610256565b8381111561027d576000848401525b50505050565b60008251610295818460208701610253565b9190910192915050565b60208152600082518060208401526102be816040850160208701610253565b601f017fffffffffffffffffffffffffffffffffffffffffffffffffffffffffffffffe016919091016040019291505056fe416464726573733a206c6f772d6c6576656c2064656c65676174652063616c6c206661696c6564a26469706673582212201cd78ab6a31213989661cff2d7d05fc9b9c38b1a848e8249e2e398659a9eb7e364736f6c634300080f0033",
    "linkReferences": {},
    "immutableReferences": {
      "3805": [
        {
          "start": 708,
          "length": 32
        },
        {
          "start": 1543,
          "length": 32
        },
        {
          "start": 1672,
          "length": 32
        },
        {
          "start": 2305,
          "length": 32
        },
        {
          "start": 2731,
          "length": 32
        },
        {
          "start": 2789,
          "length": 32
        },
        {
          "start": 3426,
          "length": 32
        },
        {
          "start": 3967,
          "length": 32
        }
      ],
      "49776": [
        {
          "start": 1290,
          "length": 32
        },
        {
          "start": 1354,
          "length": 32
        },
        {
          "start": 1817,
          "length": 32
        },
        {
          "start": 1881,
          "length": 32
        },
        {
          "start": 2028,
          "length": 32
        }
      ]
    }
  },
  "methodIdentifiers": {
    "addDeposit()": "4a58db19",
    "entryPoint()": "b0d691fe",
    "execute(address,uint256,bytes)": "b61d27f6",
    "executeBatch(address[],bytes[])": "18dfb3c7",
    "getDeposit()": "c399ec88",
    "getNonce()": "d087d288",
    "initialize(address)": "c4d66de8",
    "onERC1155BatchReceived(address,address,uint256[],uint256[],bytes)": "bc197c81",
    "onERC1155Received(address,address,uint256,uint256,bytes)": "f23a6e61",
    "onERC721Received(address,address,uint256,bytes)": "150b7a02",
    "owner()": "8da5cb5b",
    "proxiableUUID()": "52d1902d",
    "supportsInterface(bytes4)": "01ffc9a7",
    "tokensReceived(address,address,address,uint256,bytes,bytes)": "0023de29",
    "upgradeTo(address)": "3659cfe6",
    "upgradeToAndCall(address,bytes)": "4f1ef286",
    "validateUserOp((address,uint256,bytes,bytes,uint256,uint256,uint256,uint256,uint256,bytes,bytes),bytes32,uint256)": "3a871cdd",
    "withdrawDepositTo(address,uint256)": "4d44560d"
  },
  "id": 13
}